:020000040000FA
:10000000010A6400030A0504800C0200020C0600C9
:10001000790076000B0A06023F00010C340003044D
:100020003F03F4020F0A1F06160A170A830A410C3F
:100030003500EE0C3400F4021B0AF5021B0A000026
:1000400006023F00010C340003043F03F402240ABB
:100050001F062B0A2C0A830A77007800400A010C3D
:100060003C007D001C02F7010306B8021D02F801E6
:10007000C70C34003B0AF4023A0A3E0A3F0A400A1F
:1000800006023F00010C340003043F03F402440A5B
:100090001F064B0A4C0A570A070C9800D00C43065F
:1000A00097000307540A550A2F0A570A570A010CEA
:1000B0009800F40C4306970003065F0A600A7F0A63
:1000C00019023F00030C340003043F03F402640AE6
:1000D0001F076B0A6C0A750AF70C3F001F027901B3
:1000E000FB0C3F001F027901830A040C3F001F0232
:1000F000B901F70C3F001F027901830A830A7905D1
:10010000830A830A830A19023F00030C34000304A4
:100110003F03F402870A1F078E0A8F0AA70A010C01
:100120003F001F02F601650C96000307980A990A22
:100130009F0A7600040C3F001F02A6019F0AC70C0D
:100140003400A20AF402A10AA50AA60A0B0A0602B2
:100150003F0019023E00020C340003043E03F40287
:10016000AD0A1E07B40AB60A010CB70A000CFF0F4D
:10017000350095029F01040E3F001F02A6010B0AE5
:060180000B0A0B0A000A45
:021FFE00FBFFE7
:00000001FF
